S01A00004D58545F4558414D504C455F5553415254312E7372656387
S214400000082D4020A11240009F1240009F12400041
S2144000109F1240009F1240009F12400000000000C8
S2144000200000000000000000000000009F1240009A
S2144000309F124000000000009F1240009F124000A8
S2144000409F1240009F1240009F1240009F124000A7
S2144000509F1240009F1240009F1240009F12400097
S2144000609F12400000000000810F4000950F4000A6
S214400070A90F40009F1240009F1240009F12400070
S214400080BD0F4000D10F40009F1240009F1240001D
S2144000909F1240009F1240009F1240009F12400057
S2144000A09F1240009F1240009F1240009F12400047
S2144000B09F1240009F1240009F1240009F12400037
S2144000C09F1240009F1240009F1240009F12400027
S2144000D09F1240009F1240009F1240009F12400017
S2144000E09F1240009F1240009F1240009F12400007
S2144000F09F1240009F1240009F1240009F124000F7
S2144001009F1240009F1240009F1240009F124000E6
S2144001109F124000000000000000000000000000A9
S2144001209F1240009F1240009F1240009F124000C6
S2144001309F1240009F1240009F1240009F124000B6
S2144001409F1240009F1240009F1240009F124000A6
S2144001509F1240009F1240009F1240009F12400096
S2144001609F1240009F12400010B5054C237833B9CB
S214400170044B13B10448AFF300800123237010BD35
S2144001804C084020000000005C5942000C4B43B134
S2144001900C480D4910B5AFF300800C48036823B9EE
S2144001A010BD0A48036833B97047094B002BF7D097
S2144001B0BDE810401847064B002BF5D0184700BF47
S2144001C0000000005C594200500840205C59420044
S2144001D00000000010B51048104B98473E21002004
S2144001E00F4B98470F4CA0470028FCD00E4B984723
S2144001F00E4A0F4B9A620F4CA0470028FCD00220B4
S2144002000D4B984700200D4B98470D4B98470D488F
S214400210024B984710BD00BF000E270775144000DC
S21440022081104000D5104000E5104000013F1820E6
S21440023000060E40F5104000E50F40001D1040003F
S2144002406913400000A3E11110B50446104B9847CF
S21440025080232360636843F001036360636843F070
S21440026010036360636823F08003636000212046C8
S214400270084B9847636823F002036360636823F083
S2144002800403636000212046034B984710BD00BF1F
S2144002902511400051114000671140002DE9F04102
S2144002A004460D46164615491846154B98470746C8
S2144002B000231A4629682046DFF85C80C04708229B
S2144002C0296820460F4B9847FAB2296820460E4BBD
S2144002D098470822296820460C4B98477208296898
S2144002E020460B4B984786F0010202F0010229682F
S2144002F02046084B9847BDE8F08100BF80D1F00803
S214400300431240002F12400059124000E9114000AD
S214400310AD114000CB1140008112400008B5436843
S21440032013F0040F06D009680F2900D908BD064B04
S214400330984708BD09680329F8D8012303FA01F154
S214400340C943014B9847F1E7511140001AB110B428
S2144003500C46114406E00020704714F8013BC36089
S214400360A1420CD043F69923026912F0020FF4D151
S214400370013BF9D16FF002005DF8044B7047002056
S214400380FAE73AB170B415460C460D44FF2640F2E3
S214400390012112E000207047C66043F699230269A7
S2144003A031EA020204D0013BF9D16FF002000EE0C0
S2144003B0836804F8013BA5420BD043F699230269B3
S2144003C012F0020FE8D1013BF9D16FF0020070BC89
S2144003D070470020FBE700002DE9F0414FF4004253
S2144003E09E4B5A60BFF34F8FBFF36F8F9C4B0022DC
S2144003F0C3F850225A6942F400325A61BFF34F8F15
S214400400BFF36F8FD3F88070C7F34E3607F0070000
S2144004100430C7F3C907B7FA87FE0EF01F0EBFF3C6
S2144004204F8F4FF0FF3404FA00FC06FA00F004FA4F
S2144004300EF407FA0EFE1D463A46734640EA03019E
S214400440C5F86012013A2344B2F1FF3FF6D1013EAF
S2144004506044B6F1FF3FEFD1BFF34F8F804B5A69F0
S21440046042F480325A61BFF34F8FBFF36F8F7D4A9D
S2144004707D495160A1F580715160BFF34F8FBFF346
S2144004806F8FD3F8902222F00102C3F89022D3F85F
S214400490942222F00102C3F89422BFF34F8FBFF399
S2144004A06F8F0A20714CA0470B20A0470C20A04716
S2144004B01020A0471120A0476D4E4FF48078C6F814
S2144004C01080C6F8A080C6F830806A4C4FF40065AD
S2144004D06561C4F8A0506566C4F8905065652562AD
S2144004E0C4F88450236F23F400632367636F23F4B8
S2144004F000636367C4F8C050C4F8D450C4F8B05022
S2144005004FF400132366C4F8903063656362C4F802
S2144005108030226F22F400122267626F22F40012AB
S21440052062676360544AD2F8143143F01003C2F84D
S214400530143102F5B22210231366C2F89030536588
S2144005405362C2F88030116F19431167516F1943D7
S2144005505167536008222266C4F890206265626242
S214400560C4F88020216F21F008012167616F21F0D7
S2144005700801616762602366C4F890306365636211
S214400580C4F88030226F22F010022267626F22F099
S21440059010026267636000234FF400524FF06051D0
S2144005A03046364FB84700234FF080424FF06051F8
S2144005B03046B8470123FF224FF000613046B84727
S2144005C001233F224FF000612D48B84701234FF4E6
S2144005D0C0324FF000612046B847012342464FF0F4
S2144005E000613046B84701232A464FF00061304646
S2144005F0B84701234FF400224FF000612148B84726
S21440060000234FF400724FF080513046B8474FF405
S214400610007130461C4B98474FF0805174201B4C5D
S214400620A0474FF080517520A0474FF0805176206C
S214400630A0474FF080517B20A0474FF060511820D4
S214400640A0474FF060510620A0474FF0605153201E
S214400650A04753200E4B9847BDE8F08150180E40F7
S21440066000ED00E0000C0E400C08005A051140005A
S21440067000120E40000E0E4000800840310D400033
S21440068000160E4000140E403D0C4000010E400087
S214400690C90D400030B40468B4F5A07F02D340F2E0
S2144006A03F1404601468B4F5A07F02D340F23F14B0
S2144006B014600C68B4F5F07F02D340F2DF140C608F
S2144006C01C68B4F5F07F02D340F2DF141C60046867
S2144006D01568AC4201D9056014600A681868824201
S2144006E001D908601A6030BC7047000010B582B06F
S2144006F006200A4B9847002303222C210848094C21
S214400700A04700230193019BFE2B05D8019B013394
S2144007100193019BFE2BF9D902B010BDE50D4000B8
S214400720008000407911400070B582B005460E4604
S21440073014460620144B98470023032229461348A4
S214400740134DA84700230193019BFE2B05D8019B20
S21440075001330193019BFE2BF9D90CB902B070BD51
S21440076006200C4B98472246314608480A4B984785
S21440077000230193019B5E2BF0D8019B013301932C
S214400780019B5E2BF9D9E9E7E50D4000008000406B
S21440079079114000C90D40004D03400030B583B08C
S2144007A004460D4606200A4B98472A4621460948E5
S2144007B0094B984700230193019BFE2B05D8019BCC
S2144007C001330193019BFE2BF9D903B030BD00BF26
S2144007D0C90D4000008000404D034000014630B146
S2144007E0034A044B013BFDD19142FAD8704770470B
S2144007F0A1860100A086010000B583B058B9482301
S2144008008DF8073001220DF107013620044B98473A
S21440081003B05DF804FBE8238DF80730F2E700BF2D
S2144008202907400010B584B0ADF80E00013A0244E6
S214400830ADF80C20ADF80A10013B1944ADF808108D
S214400840030A8DF804308DF80500C2F307238DF8AF
S21440085006308DF8072004220DEB02012A20104CAA
S214400860A047002211461046A0479DF80B308DF851
S21440087004309DF80A308DF805309DF809308DF823
S21440088006309DF808308DF8073004220DEB020143
S2144008902B20A047002211461046A04704B010BDAA
S2144008A02907400008B5002211462920014B9847E9
S2144008B008BD00BF2907400010B4C0F30744C0F38A
S2144008C00721064B03F570721C70597098700333FD
S2144008D09342F9D15DF8044B704700BF680840204A
S2144008E010B584B0ADF80600ADF80410030A8DF8D4
S2144008F00C30C0B28DF80D008DF80E308DF80F001C
S214400900042203A92A200E4CA04700221146104676
S214400910A0479DF805208DF80C209DF804308DF8F2
S2144009200D308DF80E208DF80F30042203A92B20B1
S214400930A047002211461046A04704B010BD00BF95
S214400940290740002DE9F04387B08146032706AECD
S21440095046F8087D5D4D28465D4B98470024009438
S2144009605C4B3A4631462846DFF89881C0472246D7
S21440097039462846584B984731462846574B98475D
S21440098001202860686122462146554EB047C8205F
S214400990544DA847224621461120B047C820A847B4
S2144009A081238DF80A308DF80B4010264FF0010851
S2144009B04B4F254642460DF10A01FB20B8479DF8AD
S2144009C00A3001338DF80A300395039BFE2B05D879
S2144009D0039B01330393039BFE2BF9D92A462946F2
S2144009E0D320B8470620404B984742460DF10901B0
S2144009F036483E4B98470395039BFE2B05D8039BF2
S214400A0001330393039BFE2BF9D99DF80930B3407D
S214400A101C4342460DF10B01FB20B8470395039A51
S214400A2040F6FE739A4206D81A46039B0133039358
S214400A30039B9342F9D9083E16F1080FBAD149F202
S214400A4088439C4203D0012007B0BDE8F08306AD42
S214400A50482305F8013D012229463620204EB0475E
S214400A606420204CA04704238DF8173001222946E5
S214400A70CF20B0476420A04706238DF817300122C8
S214400A8029463A20B0476420A0470022114613204A
S214400A90B0476420A047164B98476420A0470020E4
S214400AA0144B98476420A047B9F80430B9F80020A2
S214400AB000210846104CA047D9F808000F4B98472D
S214400AC0002108460E4B98470020BDE700800040B6
S214400AD049024000002D3101E91140001D0340004D
S214400AE029074000DD074000C90D40008303400051
S214400AF0A5084000F907400025084000B908400016
S214400B00E10840009D0240002DE9F04184B003908A
S214400B100291019204AA42F8103D134601AA02A986
S214400B2003A8224CA047BDF80C00BDF80810009B57
S214400B3001335B1A019A0132121A9BB292B21C4CD4
S214400B40A0471C4B98470399019D691A009D0135A3
S214400B50029BED1A01FB0555174BA3FB05231B0A09
S214400B6063B15C1EDFF858804FF47077134E3946F9
S214400B704046B047013CB4F1FF3FF8D10E49A1FBD7
S214400B800531090A01EB8101A5EB811101EB410119
S214400B900B480A4B98474FF4F0734FF4A07200216D
S214400BA00846034CA04704B0BDE8F08195064000D7
S214400BB025084000ED064000CDCCCCCC9D0740003B
S214400BC06808402010B584B003900291013A104462
S214400BD00190013B194404AB43F8101D01AA02A939
S214400BE003A8134CA047BDF80C00BDF80810009BA6
S214400BF001335B1A019A0132121A9BB292B20D4C23
S214400C00A0470399019A511A029A009B9A1A02FB2E
S214400C1001F202EB420206992C20074B98474FF40C
S214400C20F0734FF4A07200210846A04704B010BDF0
S214400C30950640002508400029074000016370479C
S214400C404264B1F1C05F3AD013D8B1F1006F25D0FD
S214400C50B1F1805F0AD1036F13430367436F416F5F
S214400C600B4023EA02034367426070470029FBD1EA
S214400C707047B1F1205F21D009D8B1F1005FF3D1C0
S214400C80036F13430367436F13434367ECE7B1F1C6
S214400C90405F13D0B1F1605F10D0E5E710B4016F4C
S214400CA0046FD34321401C4619400167436F416F90
S214400CB00B402340436742605DF8044B7047036F28
S214400CC0016F0B4023EA02030367436F13434367F6
S214400CD0CAE7416412F0010F0DD1016612F00A0F07
S214400CE00BD0016212F0020F09D112F0080F08D0A3
S214400CF0C0F8841005E04166F0E74162F2E7C0F8CC
S214400D00801041610160704710B4019C41644CB949
S214400D1001664BB101654AB94163016101605DF806
S214400D20044B70474166F4E74165F4E70163F4E736
S214400D3070B582B0054616461C46B1F1005F14D029
S214400D400AD9B1F1405F24D0B1F1605F21D0B1F152
S214400D50205F17D000201AE0B1F1805F05D0B1F1D6
S214400D60C05F02D0B1F1006FF4D132462846114B35
S214400D70984714F0010F02D12E66012007E06E66F8
S214400D80012004E01A4631460B4B9847012002B03A
S214400D9070BD04F001030093C4F38003B1F1605FBB
S214400DA014BF0022012231462846044CA0470120A9
S214400DB0EDE700BF410C4000D30C4000090D400059
S214400DC0C06C7047806C7047054B03EB50135B025A
S214400DD000F01F00012202FA00F01863704700BFBF
S214400DE007072000054B03EB50135B0200F01F0083
S214400DF0012202FA00F05863704700BF0707200040
S214400E0070B582B00D46464C04EB5014640201F0B7
S214400E10F043B3F1005F59D00AD8B3F1805F2FD0CA
S214400E20B3F1C05F3FD0B3F1006F16D0002012E0A0
S214400E30B3F1405F5DD0B3F1605F5AD0B3F1205F4D
S214400E40F4D100F01F0101262A4606FA01F1204699
S214400E50344B9847304602B070BD00F01F00012664
S214400E60864032464FF0006120462F4B984715F09B
S214400E70010F02D126660120EDE766660120EAE70B
S214400E8000F01F000126864032464FF08051204633
S214400E90254B984715F0010F02D126660120DAE768
S214400EA066660120D7E700F01F00012686403246DE
S214400EB04FF0C05120461C4B984715F0010F02D109
S214400EC026660120C7E766660120C4E700F01F00DB
S214400ED00126864032464FF000512046124B984736
S214400EE015F0010F02D126660120B4E766660120A0
S214400EF0B1E705F0605200F01F01012605EA06033F
S214400F000093C5F38003B2F1605F14BF0022012254
S214400F1006FA01F12046054CA04730469BE700BF45
S214400F2007072000D30C4000410C4000090D40004C
S214400F302DE9F041044688460E4B98470546204624
S214400F400D4B9847054013D00C4C04F1600603E067
S214400F50B4420DD010345DB120684045F8D1616888
S214400F602942F5D0E3689847636825EA0305EFE72A
S214400F70BDE8F081C10D4000C50D4000280C402062
S214400F8008B50A210148024B984708BD000E0E409E
S214400F90310F400008B50B210148024B984708BD69
S214400FA000100E40310F400008B50C210148024B9E
S214400FB0984708BD00120E40310F400008B510217A
S214400FC00148024B984708BD00140E40310F4000C0
S214400FD008B511210148024B984708BD00160E403F
S214400FE0310F4000032811D0042812D002280CBF2D
S214400FF04FF480710021084A136B23F440730B436F
S2144010001363936E13F0080FFBD070474FF4407194
S214401010F1E74FF40071EEE700060E40174A136BF7
S21440102023F0700318431063936E13F0080F0AD131
S2144010304FF4805311498A6E12F0080F03D1013BDA
S214401040F9D1012070470D4A136B23F0030343F098
S21440105002031363936E13F0080F0AD14FF48053C4
S21440106006498A6E12F0080F05D1013BF9D10120DE
S2144010707047002070470020704700BF00060E40B3
S214401080A0B90E48036A090289B20D4A1A400D4BB0
S2144010901343194301620246936E13F0010FFBD0CF
S2144010A0064A116A084B0B431362704703490B6AA2
S2144010B0064A1A40064B13430B62704700060E4022
S2144010C0FCFFC8FF0100370000003701FCFFC8FEE8
S2144010D002003701024B986E00F48030704700BF24
S2144010E000060E404FF00052014B9A62704700BF18
S2144010F000060E40024B986E00F00200704700BF9C
S21440110000060E4000F07F00054BC3F80C01D3F8F4
S2144011100C2142F01022C3F80C210020704700BF7B
S21440112000060E4008B5074B984203D0064B98423F
S21440113004D008BD1520054B984708BD2A20034B10
S2144011409847F6E7008000400080054005114000C3
S214401150436823F4702343604368090401F4702114
S214401160194341607047436823F07F4343604368B8
S21440117043EA01614160704730B443F699240569FB
S21440118015F0020F03D1013CF9D101200CE0446870
S21440119014F0020F06D0120402F4702211430BB171
S2144011A041F08071C160002030BC704732B900EB1E
S2144011B08100036B23F001030363704700EB81005B
S2144011C0036B43F001030363704732B900EB8100C1
S2144011D0036B23F002030363704700EB8100036B4D
S2144011E043F0020303637047042A03D06AB1082A17
S2144011F016D0704700EB8100036B23F008030363AF
S214401200036B43F004030363704700EB8100036BFA
S21440121023F008030363036B23F004030363704760
S21440122000EB8100036B43F008030363E1E700EB48
S21440123081010B6B23F0F0030B630B6B1A430A63BD
S2144012407047431E1944B1FBF0F0431EFE2B94BF7B
S21440125000B24FF0FF3070477AB110B4144600EB3E
S21440126081010B6B23F47F430B630A6B42EA042233
S2144012700A6300205DF8044B70474FF0FF3070471C
S21440128010B400EB8101086B80B208630C6B44EA33
S214401290036343EA02430B635DF8044B7047FEE783
S2144012A000B583B0254B264A9A4210D0254B234A98
S2144012B09A420CD2013B9B1A23F003030433134497
S2144012C01F4951F8040B42F8040B9A42F9D11E4BC1
S2144012D01E4A9A420AD2013B9B1A23F00303043368
S2144012E01344002142F8041B9342FBD1184A194B81
S2144012F023F07F039360EFF31083B3FA83F35B0925
S214401300019372B6BFF35F8F0022134B1A70019998
S214401310124A136843F470031360BFF34F8FBFF352
S2144013206F8F29B101220C4B1A70BFF35F8F62B6E4
S2144013300B4B98470B4B9847FEE700BF00004020FA
S2144013405C5942004C084020080D40204C08402084
S21440135000ED00E0000040000000402088ED00E086
S21440136025164000391540003B4B1B6B03F003032A
S214401370012B1DD083B1022B36D0374B1B6B03F0AD
S2144013807003702B5FD0344B1A6B3449C2F3021291
S2144013900B68D3400B607047314B5B6913F0800F8E
S2144013A014BF4FF400424FF4FA422C4B1A60E4E765
S2144013B0294B1B6A13F0807F03D02A4A274B1A60BA
S2144013C0DBE7294A254B1A60234B1B6A03F0700360
S2144013D0102B05D0202BD0D1224A204B1A60CCE7C8
S2144013E0224A1E4B1A60C8E71B4B1B6A13F0807FCD
S2144013F016D01C4A194B1A60174B1B6B03F003039D
S214401400022BBAD1144A916A926A1448C1F30A412F
S214401410036801FB0333D2B2B3FBF2F30360ACE7DD
S214401420114A0E4B1A600C4B1B6A03F07003102BCC
S21440143005D0202BE0D10B4A084B1A60DCE70B4A5C
S214401440064B1A60D8E7054A13680949A1FB0313FF
S2144014505B081360704700BF00060E400400402043
S21440146010180E40001BB70000093D0000127A001D
S214401470ABAAAAAA164B984213D9164B984215D92E
S214401480154B984216D9154B984217D9144B98428B
S21440149018D9144B984294BF134A144A144B1A60F6
S2144014A070474FF08062124B1A607047114A104BDB
S2144014B01A607047104A0E4B1A6070470F4A0C4B22
S2144014C01A6070474FF00422094B1A60704700BFFD
S2144014D0BFF35E017FE7BD023FDB1C04FFCE7B050A
S2144014E0BFC2DA067FB639080005000400060004CD
S2144014F0000C0E400001000400020004000300043B
S2144015000A4B1B6853B1094B1B681A18084991428D
S21440151008DB1046054A106018467047054A034BDC
S2144015201A60F0E74FF0FF30704700BF980C40203D
S214401530FCFF4520082F402000B583B0294B984734
S214401540294B98470A20294CA0470B20A0470C203F
S214401550A0471020A0471120A04725484FF4A0736D
S21440156003604FF4F0734360224B8360C360224BAA
S21440157098472248224B984740F2DF1340F23F12EA
S214401580002108461F4CA0471F4B00935A231A467B
S21440159037212D201D4CA0471D4B00935A231A4639
S2144015A03721B920A0471B4B00935A231A46C32124
S2144015B02D20A047184B00935A231A46C321B92022
S2144015C0A047164B00935A231A4640F24F112D203F
S2144015D0A047134B00935A231A4640F24F11B920A6
S2144015E0A047FEE7D5014000D90340000511400062
S2144015F0D00C4020FCFCFC0045094000E4D8AC0080
S214401600B9084000090B4000703C4100C50B400043
S21440161084DD40005C9B410048FA4100AC1F40001E
S214401620987E400070B50F4E0F4D761BB61018BF13
S214401630002405D0013455F8043B9847A642F9D11A
S2144016400A4E0B4D761B24F077F9B61018BF0024CF
S21440165006D0013455F8043B9847A642F9D170BDF0
S21440166070BD00BF44594200445942004C594200A4
S21440167044594200024B0146186800F003B800BFC8
S214401680080040202DE9F04F01F10B06162E83B0DE
S214401690054640F29E8036F0070600F1BD80B14216
S2144016A000F2BA8000F09EFAB6F5FC7FC0F0938256
S2144016B0730A00F0B880042B00F27981B30903F175
S2144016C0390003F1380EC300BF4F3B44A3F1080175
S2144016D05C68A14206D10CE0002A80F2AA80E46849
S2144016E0A14206D0636823F003039A1B0F2AF3DD5A
S2144016F070463C69DFF8E4E2744500F0AB8163680D
S21440170023F003039A1B0F2A00F39081002AC7F8A0
S21440171014E0C7F810E080F29D80B3F5007F80F0BB
S2144017206181DB0803F1010C99107A6857F83C8018
S214401730C4F8088001238B4007EBCC0113430839DB
S214401740E1607B6047F83C40C8F80C4082100124BA
S21440175094409C4200F28B801C4206D120F003004D
S21440176064001C4200F10400FAD007EBC009CC46E6
S2144017708046DCF80C309C4507D16DE1002A80F2AB
S2144017807B81DB689C4500F06781596821F0030146
S2144017908A1B0F2AF2DDD3F80CC0D3F808800093DA
S2144017A09C19284646F0010642F001055E60C8F8DE
S2144017B00CC0CCF808807C613C61C4F80CE0C4F8EE
S2144017C008E065605A5000F013FA009B03F10804E5
S2144017D01EE0102920D800F005FA10261823022013
S2144017E0794F3B44A3F108025C68944200F03D8187
S2144017F06368E168A66823F00303234428465A68D2
S214401800F16042F001028E605A6000F0F1F908344F
S214401810204603B0BDE8F08F00240C2320462B6002
S21440182003B0BDE8F08F40204FF400734FF03F0EFA
S2144018304AE72344E1685A68A66842F00102F1602C
S21440184028468E605A6000F0D3F90834204603B02C
S214401850BDE8F08F234428465A6842F001025A6099
S21440186000F0C6F90834204603B0BDE8F08FBC68E7
S214401870636823F00308B04504D3A8EB06030F2B98
S21440188000F38580DFF85891504BD9F800201B684C
S2144018900132334404EB080A00F0558103F58053C7
S2144018A00F3323F47F6B2BF00F0B5946284600F07E
S2144018B0A5F9411C024600F0FC80824500F2F78004
S2144018C0434B19685944196000F04D81D9F800001F
S2144018D001301BBFA2EB0A0A5144C9F80020196028
S2144018E012F0070100F01581C1F10800C1F58051E2
S2144018F00244083102EB0B09C9F30B09A1EB0909B5
S214401900494628460193009200F078F9431C9DE82A
S2144019100C0000F04381801A484440F001001968EA
S214401920BA604944BC425060196017D0B8F10F0FF6
S21440193040F2FB806068A8F10C0222F0070204EB3C
S214401940020E00F001004FF0050C10430F2A6060B5
S214401950CEF804C0CEF808C000F217811D4BBC6814
S2144019601A68914288BF19601B4B1A689142626898
S21440197088BF196022F003029642A2EB060301D804
S2144019800F2B04DC284600F033F9002440E7A21968
S21440199043F0010346F0010666602846BA6053608D
S2144019A000F026F90834204603B0BDE8F08F142B2B
S2144019B071D9542B00F2A380330B03F16F0003F16F
S2144019C06E0EC30080E600BF38044020CC0C40209A
S2144019D09C0C4020C40C4020C80C402040044020B2
S2144019E0400840205A0A042A5BD9142A00F2AE80E6
S2144019F002F15C01C9005B3207EB010C7958ACF18F
S214401A00080C8C4500F088804A6822F00302934216
S214401A1073D289688C45F7D1DCF80C207B68E2608D
S214401A20C4F808C09460CCF80C408FE6A11946F084
S214401A30010C42F00106C4F804C0284679613961B9
S214401A40C1F80CE0C1F808E04E60E25000F0D0F873
S214401A500834DDE67B6879E608F1010818F0030FE4
S214401A600CF1080C7FF485AE2DE0DC68A34208BF7D
S214401A7002303FF43EAEBBE619441C464A68DB687B
S214401A8054F8086F42F001024A602846F3609E60B0
S214401A9000F0AEF8BCE603F15C0003F15B0EC30059
S214401AA012E69A0902F13901C9003832A4E7BC426D
S214401AB054D0BC68626822F003025DE759F80839E2
S214401AC0994540F0868010F0030F00F1FF30F5D1C5
S214401AD07B6823EA04037B6064009C423FF6C7AE03
S214401AE0002C3FF4C4AE1C4240467FF43EAE640039
S214401AF01C4200F10400FAD037E68C468CE7B3F57A
S214401B00AA7F15D8F30B03F1780003F1770EC300D4
S214401B10DAE54FF48051EDE67B689210012101FA38
S214401B2002F213437B60624679E70123536029E75C
S214401B3040F25452934222D8B30C03F17D0003F195
S214401B407C0EC300C0E503F1100BAEE6542A29D83C
S214401B501A0B02F16F01C9006E324DE7204B19682F
S214401B6059441960B2E6CAF30B0000287FF4AEAEC3
S214401B7008EB0B03BA6843F001035360EEE67F20A0
S214401B804FF47E734FF07E0E9EE504F10801284622
S214401B90009300F0BFF8009B1968DFE601204FF085
S214401BA00009BCE6B2F5AA7F05D8DA0B02F1780147
S214401BB0C900773220E740F254518A4205D89A0C41
S214401BC002F17D01C9007C3216E74FF47E717E2219
S214401BD012E77B6880E7F00806F1080300E600BFDE
S214401BE09C0C4020014800F07BB900BFF00C402020
S214401BF0014800F077B900BFF00C402038B5074CDC
S214401C000023054608462360FFF77AFC431C00D0B5
S214401C1038BD2368002BFBD02B6038BD040D402018
S214401C20024B13B1024800F005B8704700000000B0
S214401C30411C4000002301461A46184600F054B99D
S214401C4038B50A4C0A4D641BA4100AD004F18043F0
S214401C50013B05EB8305013C55F804399847002CB9
S214401C60F9D1BDE8384023F071BE00BF5C59420050
S214401C7058594200F8B5244F0C460646FFF7B2FFC7
S214401C80BB685D68C4F57E610F3125F003052944C5
S214401C9021F47F6121F00F01A1F58054B4F5805FF7
S214401CA007DB00213046FFF7A9FFBB682B4498426C
S214401CB004D03046FFF79CFF0020F8BD6142304616
S214401CC0FFF79CFF01300DD0104BBA6819682D1BEA
S214401CD045F001053046091B55601960FFF788FF3F
S214401CE00120F8BD00213046FFF788FFBA68831A06
S214401CF00F2BDEDD064C0549246843F00103001B2C
S214401D0053600860D5E700BF380440209C0C402054
S214401D1040084020002944D02DE9F0410D46804639
S214401D20FFF760FF55F8047C694927F00103A5F1E9
S214401D300804E2188E685068B24220F003005ED075
S214401D40FE0750600BD455F8087CE41B01F1080EE2
S214401D50A56875453B446DD0E768EF60BD601518D3
S214401D606D68ED073ED543F001026260E350B3F57F
S214401D70007F17D2DB08581C9A104D6851F8307017
S214401D80A7600123934001EBC0022B43083AE26070
S214401D904B6041F83040FC604046BDE8F041FFF7FC
S214401DA027BF70475A0A042A52D89A0902F13907BF
S214401DB0FF0002F13805C819CA59083890424FD07A
S214401DC0516821F003018B4232D292689042F7D19B
S214401DD0C368A060E3609C60C4604046BDE8F041D4
S214401DE0FFF706BF95683B4FBD42034440D0D068DE
S214401DF0E86043F0010285606260E350B7E7FF07A2
S214401E00034407D455F8082CA41A1344A068E26883
S214401E10C2609060304A126843F0010093426060AE
S214401E208C60B9D32D4B40461968FFF723FFB3E7C4
S214401E301046CDE711184968C90744D49168D2685E
S214401E40CA60034443F0010091606060E350A3E73A
S214401E50142A16D802F15C07FF0002F15B05AAE7D8
S214401E60AA1001234D6893402B434B600346B0E7CE
S214401E7043F001024C610C61E560A5606260E3508E
S214401E808AE7542A06D81A0B02F16F07FF0002F1C0
S214401E906E0590E7B2F5AA7F06D8DA0B02F178070E
S214401EA0FF0002F1770586E740F25450824206D89A
S214401EB09A0C02F17D07FF0002F17C057BE74FF4A8
S214401EC07E777E2577E743F001016160136063E724
S214401ED0380440204004402044084020CC0C402099
S214401EE0704700BF704700BF2DE9F8432C4D0646AB
S214401EF0286898460F469146FFF7F2FF294B1C6824
S214401F00D4F84831002B3ED05A681F2A1CDC02F118
S214401F10010E76B103EB82010124C1F88890D3F814
S214401F20880194402043022EC3F88801C1F80881F6
S214401F3023D00232C3F804E0286843F82270FFF743
S214401F40D1FF0020BDE8F883174B0BB34FF4C870A1
S214401F50FFF790FB0346D8B1D4F848210260002131
S214401F6041600A46C4F848014FF0010EC0F8881197
S214401F70C0F88C11002EDCD0CCE7D3F88C110C4383
S214401F80C3F88C41D5E704F5A673C4F84831BBE7DF
S214401F902868FFF7A7FF4FF0FF30BDE8F88300BF83
S214401FA0480840203459420075164000FFFFFFFFA6
S214401FB0FFFFFFFFFFFFFFFFFFFFFFFFFFFFFFFFEC
S214401FC0FFFFFFFFFFFFFFFFFFFFFFFFFFFFFFFFDC
S214401FD0FFFFFFFFFFFFFFFFFFFFFFFFFFFFFFFFCC
S214401FE0FFFFFFFFFFFFFFFFFFFFFFFFFFFFFFFFBC
S214401FF0FFFFFFFFFFFFFFFFFFFFFFFFFFFFFFFFAC
S214402000FFFFFFFFFFFFFFFFFFFFFFFFFFFFFFFF9B
S214402010FFFFFFFFFFFFFFFFFFFFFFFFFFFFFFFF8B
S214402020FFFFFFFFFFFFFFFFFFFFFFFFFFFFFFFF7B
S214402030FFFFFFFFFFFFFFFFFFFFFFFFFFFFFFFF6B
S214402040FFFFFFFFFFFFFFFFFFFFFFFFFFFFFFFF5B
S214402050FFFFFFFFFFFFFFFFFFFFFFFFFFFFFFFF4B
S214402060FFFFFFFFFFFFFFFFFFFFFFFFFFFFFFFF3B
S214402070FFFFFFFFFFFFFFFFFFFFFFFFFFFFFFFF2B
S214402080FFFFFFFFFFFFFFFFFFFFFFFFFFFFFFFF1B
S214402090FFFFFFFFFFFFFFFFFFFFFFFFFFFFFFFF0B
S2144020A0FFFFFFFFFFFFFFFFFFFFFFFFFFFFFFFFFB
S2144020B0FFFFFFFFFFFFFFFFFFFFFFFFFFFFFFFFEB
S2144020C0FFFFFFFFFFFFFFFFFFFFFFFFFFFFFFFFDB
S2144020D0FFFFFFFFFFFFFFFFFFFFFFFFFFFFFFFFCB
S2144020E0FFFFFFFFFFFFFFFFFFFFFFFFFFFFFFFFBB
S2144020F0FFFFFFFFFFFFFFFFFFFFFFFFFFFFFFFFAB
S214402100FFFFFFFFFFFFFFFFFFFFFFFFFFFFFFFF9A
S214402110FFFFFFFFFFFFFFFFFFFFFFFFFFFFFFFF8A
S214402120FFFFFFFFFFFFFFFFFF0000000000000073
S214402130000000000000000000000000000000005A
S214402140000000000000000000000000000000004A
S214402150000000000000FFFFFFFFFFFFFFFFFFFF44
S214402160FFFFFFFFFFFFFFFFFFFFFFFFFFFFFFFF3A
S214402170FFFFFFFFFFFFFFFFFFFFFFFFFFFFFFFF2A
S214402180FFFFFFFFFFFFFFFFFFFFFFFFFFFFFFFF1A
S214402190FFFFFFFFFFFFFFFFFFFFFFFFFFFFFFFF0A
S2144021A0FFFFFFFFFFFFFFFFFFFFFFFFFFFFFFFFFA
S2144021B0FFFFFFFFFFFFFFFFFFFFFFFFFFFFFFFFEA
S2144021C0FFFFFFFFFFFFFFFFFFFFFFFFFFFFFFFFDA
S2144021D0FFFFFFFFFFFFFFFFFFFFFFFFFFFFFFFFCA
S2144021E0FFFFFFFFFFFFFFFFFFFFFFFFFFFFFFFFBA
S2144021F0FFFFFFFFFFFFFFFFFFFFFFFFFFFFFFFFAA
S214402200FFFFFFFFFFFFFFFFFFFFFFFFFFFFFFFF99
S214402210FFFFFFFFFFFFFFFFFFFFFFFFFFFFFFFF89
S214402220FFFFFFFFFFFFFFFFFFFFFFFFFFFFFFFF79
S214402230FFFFFFFFFFFFFF00000000000000000060
S2144022400000000000000000000000000000000049
S2144022500000000000000000000000000000000039
S21440226000000000FFFFFFFFFFFFFFFFFFFFFFFF35
S214402270FFFFFFFFFFFFFFFFFFFFFFFFFFFFFFFF29
S214402280FFFFFFFFFFFFFFFFFFFFFFFFFFFFFFFF19
S214402290FFFFFFFFFFFFFFFFFFFFFFFFFFFFFFFF09
S2144022A0FFFFFFFFFFFFFFFFFFFFFFFFFFFFFFFFF9
S2144022B0FFFFFFFFFFFFFFFFFFFFFFFFFFFFFFFFE9
S2144022C0FFFFFFFFFFFFFFFFFFFFFFFFFFFFFFFFD9
S2144022D0FFFFFFFFFFFFFFFFFFFFFFFFFFFFFFFFC9
S2144022E0FFFFFFFFFFFFFFFFFFFFFFFFFFFFFFFFB9
S2144022F0FFFFFFFFFFFFFFFFFFFFFFFFFFFFFFFFA9
S214402300FFFFFFFFFFFFFFFFFFFFFFFFFFFFFFFF98
S214402310FFFFFFFFFFFFFFFFFFFFFFFFFFFFFFFF88
S214402320FFFFFFFFFFFFFFFFFFFFFFFFFFFFFFFF78
S214402330FFFFFF000000000000000000000000005B
S2144023400000000000000000000000000000000048
S2144023500000000000000000000000000000000038
S2144023600000000000000000000000000000000028
S2144023700000000000000000000000000000000018
S21440238000000000FFFFFFFFFFFFFFFFFFFFFFFF14
S214402390FFFFFFFFFFFFFFFFFFFFFFFFFFFFFFFF08
S2144023A0FFFFFFFFFFFFFFFFFFFFFFFFFFFFFFFFF8
S2144023B0FFFFFFFFFFFFFFFFFFFFFFFFFFFFFFFFE8
S2144023C0FFFFFFFFFFFFFFFFFFFFFFFFFFFFFFFFD8
S2144023D0FFFFFFFFFFFFFFFFFFFFFFFFFFFFFFFFC8
S2144023E0FFFFFFFFFFFFFFFFFFFFFFFFFFFFFFFFB8
S2144023F0FFFFFFFFFFFFFFFFFFFFFFFFFFFFFFFFA8
S214402400FFFFFFFFFFFFFFFFFFFFFFFFFFFFFFFF97
S214402410FFFFFFFFFFFFFFFFFFFFFFFFFFFFFFFF87
S214402420FFFFFFFFFFFFFFFFFFFFFFFFFFFFFFFF77
S214402430FFFFFFFFFFFFFFFF00000000000000005F
S2144024400000000000000000000000000000000047
S2144024500000000000000000000000000000000037
S2144024600000000000000000000000000000000027
S2144024700000000000000000000000000000000017
S2144024800000000000000000000000000000000007
S21440249000000000000000000000000000000000F7
S2144024A000FFFFFFFFFFFFFFFFFFFFFFFFFFFFFFF6
S2144024B0FFFFFFFFFFFFFFFFFFFFFFFFFFFFFFFFE7
S2144024C0FFFFFFFFFFFFFFFFFFFFFFFFFFFFFFFFD7
S2144024D0FFFFFFFFFFFFFFFFFFFFFFFFFFFFFFFFC7
S2144024E0FFFFFFFFFFFFFFFFFFFFFFFFFFFFFFFFB7
S2144024F0FFFFFFFFFFFFFFFFFFFFFFFFFFFFFFFFA7
S214402500FFFFFFFFFFFFFFFFFFFFFFFFFFFFFFFF96
S214402510FFFFFFFFFFFFFFFFFFFFFFFFFFFFFFFF86
S214402520FFFFFFFFFFFFFFFFFFFFFFFFFFFFFFFF76
S214402530FFFFFFFFFFFFFFFFFFFFFFFFFFFFFFFF66
S214402540FFFFFFFFFFFF000000000000000000004C
S2144025500000000000000000000000000000000036
S2144025600000000000000000000000000000000026
S2144025700000000000000000000000000000000016
S2144025800000000000000000000000000000000006
S21440259000000000000000000000000000000000F6
S2144025A0000000000000000000000000000000FFE7
S2144025B0FFFFFFFFFFFFFFFFFFFFFFFFFFFFFFFFE6
S2144025C0FFFFFFFFFFFFFFFFFFFFFFFFFFFFFFFFD6
S2144025D0FFFFFFFFFFFFFFFFFFFFFFFFFFFFFFFFC6
S2144025E0FFFFFFFFFFFFFFFFFFFFFFFFFFFFFFFFB6
S2144025F0FFFFFFFFFFFFFFFFFFFFFFFFFFFFFFFFA6
S214402600FFFFFFFFFFFFFFFFFFFFFFFFFFFFFFFF95
S214402610FFFFFFFFFFFFFFFFFFFFFFFFFFFFFFFF85
S214402620FFFFFFFFFFFFFFFFFFFFFFFFFFFFFFFF75
S214402630FFFFFFFFFFFFFFFFFFFFFFFFFFFFFFFF65
S214402640FFFFFFFFFFFFFFFFFFFFFF000000000050
S2144026500000000000000000000000000000000035
S2144026600000000000000000000000000000000025
S2144026700000000000000000000000000000000015
S2144026800000000000000000000000000000000005
S21440269000000000000000000000000000000000F5
S2144026A000000000000000000000000000000000E5
S2144026B000000000000000000000000000000000D5
S2144026C0000000000000FFFFFFFFFFFFFFFFFFFFCF
S2144026D0FFFFFFFFFFFFFFFFFFFFFFFFFFFFFFFFC5
S2144026E0FFFFFFFFFFFFFFFFFFFFFFFFFFFFFFFFB5
S2144026F0FFFFFFFFFFFFFFFFFFFFFFFFFFFFFFFFA5
S214402700FFFFFFFFFFFFFFFFFFFFFFFFFFFFFFFF94
S214402710FFFFFFFFFFFFFFFFFFFFFFFFFFFFFFFF84
S214402720FFFFFFFFFFFFFFFFFFFFFFFFFFFFFFFF74
S214402730FFFFFFFFFFFFFFFFFFFFFFFFFFFFFFFF64
S214402740FFFFFFFFFFFFFFFFFFFFFFFFFFFFFFFF54
S2144027500000000000000000000000000000000034
S2144027600000000000000000000000000000000024
S2144027700000000000000000000000000000000014
S2144027800000000000000000000000000000000004
S21440279000000000000000000000000000000000F4
S2144027A000000000000000000000000000000000E4
S2144027B000000000000000000000000000000000D4
S2144027C000000000000000000000000000000000C4
S2144027D000000000000000000000000000FFFFFFB7
S2144027E0FFFFFFFFFFFFFFFFFFFFFFFFFFFFFFFFB4
S2144027F0FFFFFFFFFFFFFFFFFFFFFFFFFFFFFFFFA4
S214402800FFFFFFFFFFFFFFFFFFFFFFFFFFFFFFFF93
S214402810FFFFFFFFFFFFFFFFFFFFFFFFFFFFFFFF83
S214402820FFFFFFFFFFFFFFFFFFFFFFFFFFFFFFFF73
S214402830FFFFFFFFFFFFFFFFFFFFFFFFFFFFFFFF63
S214402840FFFFFFFFFFFFFFFFFFFFFFFFFFFFFFFF53
S214402850FFFFFFFFFFFFFFFFFFFFFFFFFFFF000041
S2144028600000000000000000000000000000000023
S2144028700000000000000000000000000000000013
S2144028800000000000000000000000000000000003
S21440289000000000000000000000000000000000F3
S2144028A000000000000000000000000000000000E3
S2144028B000000000000000000000000000000000D3
S2144028C000000000000000000000000000000000C3
S2144028D000000000000000000000000000000000B3
S2144028E00000000000000000000000FFFFFFFFFFA8
S2144028F0FFFFFFFFFFFFFFFFFFFFFFFFFFFFFFFFA3
S214402900FFFFFFFFFFFFFFFFFFFFFFFFFFFFFFFF92
S214402910FFFFFFFFFFFFFFFFFFFFFFFFFFFFFFFF82
S214402920FFFFFFFFFFFFFFFFFFFFFFFFFFFFFFFF72
S214402930FFFFFFFFFFFFFFFFFFFFFFFFFFFFFFFF62
S214402940FFFFFFFFFFFFFFFFFFFFFFFFFFFFFFFF52
S214402950FFFFFFFFFFFFFFFFFFFFFFFFFFFFFFFF42
S214402960FFFFFF0000000000000000000000000025
S2144029700000000000000000000000000000000012
S2144029800000000000000000000000000000000002
S21440299000000000000000000000000000000000F2
S2144029A000000000000000000000000000000000E2
S2144029B000000000000000000000000000000000D2
S2144029C000000000000000000000000000000000C2
S2144029D000000000000000000000000000000000B2
S2144029E000000000000000000000000000000000A2
S2144029F0000000000000000000000000FFFFFFFF96
S214402A00FFFFFFFFFFFFFFFFFFFFFFFFFFFFFFFF91
S214402A10FFFFFFFFFFFFFFFFFFFFFFFFFFFFFFFF81
S214402A20FFFFFFFFFFFFFFFFFFFFFFFFFFFFFFFF71
S214402A30FFFFFFFFFFFFFFFFFFFFFFFFFFFFFFFF61
S214402A40FFFFFFFFFFFFFFFFFFFFFFFFFFFFFFFF51
S214402A50FFFFFFFFFFFFFFFFFFFFFFFFFFFFFFFF41
S214402A60FFFFFFFFFFFFFFFFFFFFFFFFFFFF00002F
S214402A700000000000000000000000000000000011
S214402A800000000000000000000000000000000001
S214402A9000000000000000000000000000000000F1
S214402AA000000000000000000000000000000000E1
S214402AB000000000000000000000000000000000D1
S214402AC000000000000000000000000000000000C1
S214402AD000000000000000000000000000000000B1
S214402AE000000000000000000000000000000000A1
S214402AF00000000000000000000000000000000091
S214402B000000000000000000000000000000000080
S214402B10FFFFFFFFFFFFFFFFFFFFFFFFFFFFFFFF80
S214402B20FFFFFFFFFFFFFFFFFFFFFFFFFFFFFFFF70
S214402B30FFFFFFFFFFFFFFFFFFFFFFFFFFFFFFFF60
S214402B40FFFFFFFFFFFFFFFFFFFFFFFFFFFFFFFF50
S214402B50FFFFFFFFFFFFFFFFFFFFFFFFFFFFFFFF40
S214402B60FFFFFFFFFFFFFFFFFFFFFFFFFFFFFFFF30
S214402B70FFFFFFFFFFFFFFFFFFFFFFFF000000001C
S214402B800000000000000000000000000000000000
S214402B9000000000000000000000000000000000F0
S214402BA000000000000000000000000000000000E0
S214402BB000000000000000000000000000000000D0
S214402BC000000000000000000000000000000000C0
S214402BD000000000000000000000000000000000B0
S214402BE000000000000000000000000000000000A0
S214402BF00000000000000000000000000000000090
S214402C00000000000000000000000000000000007F
S214402C100000000000000000000000000000FFFF71
S214402C20FFFFFFFFFFFFFFFFFFFFFFFFFFFFFFFF6F
S214402C30FFFFFFFFFFFFFFFFFFFFFFFFFFFFFFFF5F
S214402C40FFFFFFFFFFFFFFFFFFFFFFFFFFFFFFFF4F
S214402C50FFFFFFFFFFFFFFFFFFFFFFFFFFFFFFFF3F
S214402C60FFFFFFFFFFFFFFFFFFFFFFFFFFFFFFFF2F
S214402C70FFFFFFFFFFFFFFFFFFFFFFFFFFFFFFFF1F
S214402C80FFFFFFFF00000000000000000000000003
S214402C9000000000000000000000000000000000EF
S214402CA000000000000000000000000000000000DF
S214402CB000000000000000000000000000000000CF
S214402CC000000000000000000000000000000000BF
S214402CD00000000000FFFFFFFFFFFFFFFFFFFFFFBA
S214402CE0FFFFFFFF000000000000000000000000A3
S214402CF0000000000000000000000000000000008F
S214402D00000000000000000000000000000000007E
S214402D10000000000000000000000000000000006E
S214402D20000000000000000000000000000000005E
S214402D300000000000FFFFFFFFFFFFFFFFFFFFFF59
S214402D40FFFFFFFFFFFFFFFFFFFFFFFFFFFFFFFF4E
S214402D50FFFFFFFFFFFFFFFFFFFFFFFFFFFFFFFF3E
S214402D60FFFFFFFFFFFFFFFFFFFFFFFFFFFFFFFF2E
S214402D70FFFFFFFFFFFFFFFFFFFFFFFFFFFFFFFF1E
S214402D80FFFFFFFFFFFFFFFFFFFFFFFFFFFFFF000D
S214402D9000000000000000000000000000000000EE
S214402DA000000000000000000000000000000000DE
S214402DB000000000000000000000000000000000CE
S214402DC000000000000000000000000000000000BE
S214402DD000000000000000FFFFFFFFFFFFFFFFFFB7
S214402DE0FFFFFFFFFFFFFFFFFFFFFFFFFFFFFFFFAE
S214402DF0FFFFFFFFFFFFFFFFFFFFFFFFFFFFFFFF9E
S214402E00FFFFFFFFFFFFFF00000000000000000084
S214402E10000000000000000000000000000000006D
S214402E20000000000000000000000000000000005D
S214402E30000000000000000000000000000000004D
S214402E40000000000000FFFFFFFFFFFFFFFFFFFF47
S214402E50FFFFFFFFFFFFFFFFFFFFFFFFFFFFFFFF3D
S214402E60FFFFFFFFFFFFFFFFFFFFFFFFFFFFFFFF2D
S214402E70FFFFFFFFFFFFFFFFFFFFFFFFFFFFFFFF1D
S214402E80FFFFFFFFFFFFFFFFFFFFFFFFFFFFFFFF0D
S214402E90FFFFFFFFFFFFFFFFFFFFFFFFFF000000FA
S214402EA000000000000000000000000000000000DD
S214402EB000000000000000000000000000000000CD
S214402EC000000000000000000000000000000000BD
S214402ED000000000000000000000000000000000AD
S214402EE00000000000FFFFFFFFFFFFFFFFFFFFFFA8
S214402EF0FFFFFFFFFFFFFFFFFFFFFFFFFFFFFFFF9D
S214402F00FFFFFFFFFFFFFFFFFFFFFFFFFFFFFFFF8C
S214402F10FFFFFFFFFF000000000000000000000071
S214402F20000000000000000000000000000000005C
S214402F30000000000000000000000000000000004C
S214402F40000000000000000000000000000000003C
S214402F5000000000FFFFFFFFFFFFFFFFFFFFFFFF38
S214402F60FFFFFFFFFFFFFFFFFFFFFFFFFFFFFFFF2C
S214402F70FFFFFFFFFFFFFFFFFFFFFFFFFFFFFFFF1C
S214402F80FFFFFFFFFFFFFFFFFFFFFFFFFFFFFFFF0C
S214402F90FFFFFFFFFFFFFFFFFFFFFFFFFFFFFFFFFC
S214402FA0FFFFFFFFFF0000000000000000000000E1
S214402FB000000000000000000000000000000000CC
S214402FC000000000000000000000000000000000BC
S214402FD000000000000000000000000000000000AC
S214402FE000000000000000000000000000FFFFFF9F
S214402FF0FFFFFFFFFFFFFFFFFFFFFFFFFFFFFFFF9C
S214403000FFFFFFFFFFFFFFFFFFFFFFFFFFFFFFFF8B
S214403010FFFFFFFFFFFFFFFFFFFFFFFFFFFFFFFF7B
S214403020FFFFFFFFFFFFFFFFFFFFFFFFFFFFFFFF6B
S214403030FFFF00000000000000000000000000004D
S214403040000000000000000000000000000000003B
S214403050000000000000000000000000000000002B
S2144030600000000000000000FFFFFFFFFFFFFFFF23
S214403070FFFFFFFFFFFFFFFFFFFFFFFFFFFFFFFF1B
S214403080FFFFFFFFFFFFFFFFFFFFFFFFFFFFFFFF0B
S214403090FFFFFFFFFFFFFFFFFFFFFFFFFFFFFFFFFB
S2144030A0FFFFFFFFFFFFFFFFFFFFFFFFFFFFFFFFEB
S2144030B000000000000000000000000000000000CB
S2144030C000000000000000000000000000000000BB
S2144030D000000000000000000000000000000000AB
S2144030E0000000000000000000000000000000009B
S2144030F00000000000000000FFFFFFFFFFFFFFFF93
S214403100FFFFFFFFFFFFFFFFFFFFFFFFFFFFFFFF8A
S214403110FFFFFFFFFFFFFFFFFFFFFFFFFFFFFFFF7A
S214403120FFFFFFFFFFFFFFFFFFFFFFFFFFFFFFFF6A
S214403130FFFFFFFFFFFFFFFFFFFFFFFFFFFFFFFF5A
S214403140FFFFFF000000000000000000000000003D
S214403150000000000000000000000000000000002A
S214403160000000000000000000000000000000001A
S214403170000000000000000000FFFFFFFFFFFFFF11
S214403180FFFFFFFFFFFFFFFFFFFFFFFFFFFFFFFF0A
S214403190FFFFFFFFFFFFFFFFFFFFFFFFFFFFFFFFFA
S2144031A0FFFFFFFFFFFFFFFFFFFFFFFFFFFFFFFFEA
S2144031B0FFFFFFFFFFFFFFFFFFFFFFFFFFFF0000D8
S2144031C000000000000000000000000000000000BA
S2144031D000000000000000000000000000000000AA
S2144031E0000000000000000000000000000000009A
S2144031F0000000000000000000000000000000008A
S214403200000000000000FFFFFFFFFFFFFFFFFFFF83
S214403210FFFFFFFFFFFFFFFFFFFFFFFFFFFFFFFF79
S214403220FFFFFFFFFFFFFFFFFFFFFFFFFFFFFFFF69
S214403230FFFFFFFFFFFFFFFFFFFFFFFFFFFFFFFF59
S214403240FFFFFFFFFFFFFFFFFFFFFFFFFFFFFFFF49
S214403250FF0000000000000000000000000000002A
S2144032600000000000000000000000000000000019
S2144032700000000000000000000000000000000009
S21440328000000000000000FFFFFFFFFFFFFFFFFF02
S214403290FFFFFFFFFFFFFFFFFFFFFFFFFFFFFFFFF9
S2144032A0FFFFFFFFFFFFFFFFFFFFFFFFFFFFFFFFE9
S2144032B0FFFFFFFFFFFFFFFFFFFFFFFFFFFFFFFFD9
S2144032C0FFFFFFFFFFFF00000000000000000000BF
S2144032D000000000000000000000000000000000A9
S2144032E00000000000000000000000000000000099
S2144032F00000000000000000000000000000000089
S2144033000000000000000000000000000000FFFF7A
S214403310FFFFFFFFFFFFFFFFFFFFFFFFFFFFFFFF78
S214403320FFFFFFFFFFFFFFFFFFFFFFFFFFFFFFFF68
S214403330FFFFFFFFFFFFFFFFFFFFFFFFFFFFFFFF58
S214403340FFFFFFFFFFFFFFFFFFFFFFFFFFFFFFFF48
S214403350FFFFFFFFFFFFFFFFFFFFFFFFFFFFFFFF38
S214403360FFFFFFFFFFFFFFFF000000000000000020
S2144033700000000000000000000000000000000008
S21440338000000000000000000000000000000000F8
S2144033900000000000FFFFFFFFFFFFFFFFFFFFFFF3
S2144033A0FFFFFFFFFFFFFFFFFFFFFFFFFFFFFFFFE8
S2144033B0FFFFFFFFFFFFFFFFFFFFFFFFFFFFFFFFD8
S2144033C0FFFFFFFFFFFFFFFFFFFFFFFFFFFFFFFFC8
S2144033D0FF000000000000000000000000000000A9
S2144033E00000000000000000000000000000000098
S2144033F00000000000000000000000000000000088
S2144034000000000000000000000000000000000077
S214403410000000000000000000000000FFFFFFFF6B
S214403420FFFFFFFFFFFFFFFFFFFFFFFFFFFFFFFF67
S214403430FFFFFFFFFFFFFFFFFFFFFFFFFFFFFFFF57
S214403440FFFFFFFFFFFFFFFFFFFFFFFFFFFFFFFF47
S214403450FFFFFFFFFFFFFFFFFFFFFFFFFFFFFFFF37
S214403460FFFFFFFFFFFFFFFFFFFFFFFFFFFFFFFF27
S214403470FFFFFFFFFFFFFFFFFFFFFFFF0000000013
S21440348000000000000000000000000000000000F7
S21440349000000000000000000000000000000000E7
S2144034A0000000000000000000FFFFFFFFFFFFFFDE
S2144034B0FFFFFFFFFFFFFFFFFFFFFFFFFFFFFFFFD7
S2144034C0FFFFFFFFFFFFFFFFFFFFFFFFFFFFFFFFC7
S2144034D0FFFFFFFFFFFFFFFFFFFFFFFFFFFFFF00B6
S2144034E00000000000000000000000000000000097
S2144034F00000000000000000000000000000000087
S2144035000000000000000000000000000000000076
S2144035100000000000000000000000000000000066
S21440352000000000000000000000FFFFFFFFFFFF5C
S214403530FFFFFFFFFFFFFFFFFFFFFFFFFFFFFFFF56
S214403540FFFFFFFFFFFFFFFFFFFFFFFFFFFFFFFF46
S214403550FFFFFFFFFFFFFFFFFFFFFFFFFFFFFFFF36
S214403560FFFFFFFFFFFFFFFFFFFFFFFFFFFFFFFF26
S214403570FFFFFFFFFFFFFFFFFFFFFFFFFFFFFFFF16
S214403580FFFFFFFFFFFFFFFFFFFF00000000000000
S21440359000000000000000000000000000000000E6
S2144035A000000000000000000000000000000000D6
S2144035B000000000000000FFFFFFFFFFFFFFFFFFCF
S2144035C0FFFFFFFFFFFFFFFFFFFFFFFFFFFFFFFFC6
S2144035D0FFFFFFFFFFFFFFFFFFFFFFFFFFFFFFFFB6
S2144035E0FFFFFFFFFFFFFFFFFFFFFFFFFF000000A3
S2144035F00000000000000000000000000000000086
S2144036000000000000000000000000000000000075
S2144036100000000000000000000000000000000065
S2144036200000000000000000000000000000000055
S2144036300000000000000000FFFFFFFFFFFFFFFF4D
S214403640FFFFFFFFFFFFFFFFFFFFFFFFFFFFFFFF45
S214403650FFFFFFFFFFFFFFFFFFFFFFFFFFFFFFFF35
S214403660FFFFFFFFFFFFFFFFFFFFFFFFFFFFFFFF25
S214403670FFFFFFFFFFFFFFFFFFFFFFFFFFFFFFFF15
S214403680FFFFFFFFFFFFFFFFFFFFFFFFFFFFFFFF05
S214403690FFFFFFFFFFFFFFFFFFFFFF0000000000F0
S2144036A000000000000000000000000000000000D5
S2144036B000000000000000000000000000000000C5
S2144036C00000000000000000FFFFFFFFFFFFFFFFBD
S2144036D0FFFFFFFFFFFFFFFFFFFFFFFFFFFFFFFFB5
S2144036E0FFFFFFFFFFFFFFFFFFFFFFFFFFFFFFFFA5
S2144036F0FFFFFFFFFF00000000000000000000008A
S2144037000000000000000000000000000000000074
S214403710000000000000000000000000000000FF65
S214403720FFFF000000000000000000000000000056
S2144037300000000000000000000000000000000044
S214403740000000000000FFFFFFFFFFFFFFFFFFFF3E
S214403750FFFFFFFFFFFFFFFFFFFFFFFFFFFFFFFF34
S214403760FFFFFFFFFFFFFFFFFFFFFFFFFFFFFFFF24
S214403770FFFFFFFFFFFFFFFFFFFFFFFFFFFFFFFF14
S214403780FFFFFFFFFFFFFFFFFFFFFFFFFFFFFFFF04
S214403790FFFFFFFFFFFFFFFFFFFFFFFFFFFFFFFFF4
S2144037A0FFFFFFFFFFFFFFFFFFFFFFFFFFFFFF00E3
S2144037B000000000000000000000000000000000C4
S2144037C000000000000000000000000000000000B4
S2144037D0000000000000FFFFFFFFFFFFFFFFFFFFAE
S2144037E0FFFFFFFFFFFFFFFFFFFFFFFFFFFFFFFFA4
S2144037F0FFFFFFFFFFFFFFFFFFFFFFFFFFFFFFFF94
S214403800FFFFFF0000000000000000000000000076
S2144038100000000000000000000000000000000063
S21440382000000000000000000000000000FFFFFF56
S2144038300000000000000000000000000000000043
S2144038400000000000000000000000000000000033
S21440385000000000FFFFFFFFFFFFFFFFFFFFFFFF2F
S214403860FFFFFFFFFFFFFFFFFFFFFFFFFFFFFFFF23
S214403870FFFFFFFFFFFFFFFFFFFFFFFFFFFFFFFF13
S214403880FFFFFFFFFFFFFFFFFFFFFFFFFFFFFFFF03
S214403890FFFFFFFFFFFFFFFFFFFFFFFFFFFFFFFFF3
S2144038A0FFFFFFFFFFFFFFFFFFFFFFFFFFFFFFFFE3
S2144038B0FFFFFFFFFFFFFFFFFFFFFFFFFF000000D0
S2144038C000000000000000000000000000000000B3
S2144038D000000000000000000000000000000000A3
S2144038E000000000FFFFFFFFFFFFFFFFFFFFFFFF9F
S2144038F0FFFFFFFFFFFFFFFFFFFFFFFFFFFFFFFF93
S214403900FFFFFFFFFFFFFFFFFFFFFFFFFFFF000080
S2144039100000000000000000000000000000000062
S2144039200000000000000000000000000000000052
S2144039300000000000FFFFFFFFFFFFFFFFFF00004B
S2144039400000000000000000000000000000000032
S2144039500000000000000000000000000000000022
S2144039600000FFFFFFFFFFFFFFFFFFFFFFFFFFFF20
S214403970FFFFFFFFFFFFFFFFFFFFFFFFFFFFFFFF12
S214403980FFFFFFFFFFFFFFFFFFFFFFFFFFFFFFFF02
S214403990FFFFFFFFFFFFFFFFFFFFFFFFFFFFFFFFF2
S2144039A0FFFFFFFFFFFFFFFFFFFFFFFFFFFFFFFFE2
S2144039B0FFFFFFFFFFFFFFFFFFFFFFFFFFFFFFFFD2
S2144039C0FFFFFFFFFFFFFFFFFFFFFFFFFFFF0000C0
S2144039D000000000000000000000000000000000A2
S2144039E00000000000000000000000000000000092
S2144039F00000000000000000FFFFFFFFFFFFFFFF8A
S214403A00FFFFFFFFFFFFFFFFFFFFFFFFFFFFFFFF81
S214403A10FFFFFFFFFFFFFFFFFFFFFFFF000000006D
S214403A200000000000000000000000000000000051
S214403A300000000000000000000000000000000041
S214403A40FFFFFFFFFFFFFFFFFFFFFFFF000000003D
S214403A500000000000000000000000000000000021
S214403A600000000000000000000000000000000011
S214403A70FFFFFFFFFFFFFFFFFFFFFFFFFFFFFFFF11
S214403A80FFFFFFFFFFFFFFFFFFFFFFFFFFFFFFFF01
S214403A90FFFFFFFFFFFFFFFFFFFFFFFFFFFFFFFFF1
S214403AA0FFFFFFFFFFFFFFFFFFFFFFFFFFFFFFFFE1
S214403AB0FFFFFFFFFFFFFFFFFFFFFFFFFFFFFFFFD1
S214403AC0FFFFFFFFFFFFFFFFFFFFFFFFFFFFFFFFC1
S214403AD0FFFFFFFFFFFFFFFFFFFFFFFFFFFFFFFFB1
S214403AE0FFFF000000000000000000000000000093
S214403AF00000000000000000000000000000000081
S214403B00000000000000FFFFFFFFFFFFFFFFFFFF7A
S214403B10FFFFFFFFFFFFFFFFFFFFFFFFFFFFFFFF70
S214403B20FFFFFFFFFFFFFFFFFFFF0000000000005A
S214403B300000000000000000000000000000000040
S214403B400000000000000000000000000000FFFF32
S214403B50FFFFFFFFFFFFFFFFFFFF0000000000002A
S214403B600000000000000000000000000000000010
S214403B700000000000000000000000000000FFFF02
S214403B80FFFFFFFFFFFFFFFFFFFFFFFFFFFFFFFF00
S214403B90FFFFFFFFFFFFFFFFFFFFFFFFFFFFFFFFF0
S214403BA0FFFFFFFFFFFFFFFFFFFFFFFFFFFFFFFFE0
S214403BB0FFFFFFFFFFFFFFFFFFFFFFFFFFFFFFFFD0
S214403BC0FFFFFFFFFFFFFFFFFFFFFFFFFFFFFFFFC0
S214403BD0FFFFFFFFFFFFFFFFFFFFFFFFFFFFFFFFB0
S214403BE0FFFFFFFFFFFFFFFFFFFFFFFFFFFFFFFFA0
S214403BF00000000000000000000000000000000080
S214403C00000000000000000000000000000000006F
S214403C1000000000FFFFFFFFFFFFFFFFFFFFFFFF6B
S214403C20FFFFFFFFFFFFFFFFFFFFFFFFFFFFFFFF5F
S214403C30FFFFFFFFFFFFFFFF000000000000000047
S214403C40000000000000000000000000000000002F
S214403C50000000000000000000000000FFFFFFFF23
S214403C60FFFFFFFFFFFFFFFFFFFFFFFFFFFF00001D
S214403C7000000000000000000000000000000000FF
S214403C80000000000000000000000000FFFFFFFFF3
S214403C90FFFFFFFFFFFFFFFFFFFFFFFFFFFFFFFFEF
S214403CA0FFFFFFFFFFFFFFFFFFFFFFFFFFFFFFFFDF
S214403CB0FFFFFFFFFFFFFFFFFFFFFFFFFFFFFFFFCF
S214403CC0FFFFFFFFFFFFFFFFFFFFFFFFFFFFFFFFBF
S214403CD0FFFFFFFFFFFFFFFFFFFFFFFFFFFFFFFFAF
S214403CE0FFFFFFFFFFFFFFFFFFFFFFFFFFFFFFFF9F
S214403CF0FFFFFFFFFFFFFFFFFFFFFFFFFFFFFFFF8F
S214403D00FF0000000000000000000000000000006F
S214403D10000000000000000000000000000000005E
S214403D200000000000FFFFFFFFFFFFFFFFFFFFFF59
S214403D30FFFFFFFFFFFFFFFFFFFFFFFFFFFFFFFF4E
S214403D40000000000000000000000000000000002E
S214403D50000000000000000000000000000000001E
S214403D6000000000FFFFFFFFFFFFFFFFFFFFFFFF1A
S214403D70FFFFFFFFFFFFFFFFFFFFFFFF000000000A
S214403D8000000000000000000000000000000000EE
S214403D9000000000000000000000000000000000DE
S214403DA0FFFFFFFFFFFFFFFFFFFFFFFFFFFFFFFFDE
S214403DB0FFFFFFFFFFFFFFFFFFFFFFFFFFFFFFFFCE
S214403DC0FFFFFFFFFFFFFFFFFFFFFFFFFFFFFFFFBE
S214403DD0FFFFFFFFFFFFFFFFFFFFFFFFFFFFFFFFAE
S214403DE0FFFFFFFFFFFFFFFFFFFFFFFFFFFFFFFF9E
S214403DF0FFFFFFFFFFFFFFFFFFFFFFFFFFFFFFFF8E
S214403E00FFFFFFFFFFFFFFFFFFFFFFFFFFFFFF007C
S214403E10000000000000000000000000000000005D
S214403E20000000000000000000000000000000004D
S214403E30000000FFFFFFFFFFFFFFFFFFFFFFFFFF4A
S214403E40FFFFFFFFFFFFFFFFFFFFFFFFFFFF00003B
S214403E50000000000000000000000000000000001D
S214403E60000000000000000000000000000000000D
S214403E700000FFFFFFFFFFFFFFFFFFFFFFFFFFFF0B
S214403E80FFFFFFFFFFFFFFFFFFFF000000000000F7
S214403E9000000000000000000000000000000000DD
S214403EA00000000000000000000000000000FFFFCF
S214403EB0FFFFFFFFFFFFFFFFFFFFFFFFFFFFFFFFCD
S214403EC0FFFFFFFFFFFFFFFFFFFFFFFFFFFFFFFFBD
S214403ED0FFFFFFFFFFFFFFFFFFFFFFFFFFFFFFFFAD
S214403EE0FFFFFFFFFFFFFFFFFFFFFFFFFFFFFFFF9D
S214403EF0FFFFFFFFFFFFFFFFFFFFFFFFFFFFFFFF8D
S214403F00FFFFFFFFFFFFFFFFFFFFFFFFFFFFFFFF7C
S214403F10FFFFFFFFFFFFFFFFFFFFFFFFFF00000069
S214403F20000000000000000000000000000000004C
S214403F30000000000000000000000000000000003C
S214403F4000FFFFFFFFFFFFFFFFFFFFFFFFFFFFFF3B
S214403F50FFFFFFFFFFFFFFFFFFFFFFFF0000000028
S214403F60000000000000000000000000000000000C
S214403F7000000000000000000000000000000000FC
S214403F80FFFFFFFFFFFFFFFFFFFFFFFFFFFFFFFFFC
S214403F90FFFFFFFFFFFFFFFF0000000000000000E4
S214403FA000000000000000000000000000000000CC
S214403FB0000000000000000000000000FFFFFFFFC0
S214403FC0FFFFFFFFFFFFFFFFFFFFFFFFFFFFFFFFBC
S214403FD0FFFFFFFFFFFFFFFFFFFFFFFFFFFFFFFFAC
S214403FE0FFFFFFFFFFFFFFFFFFFFFFFFFFFFFFFF9C
S214403FF0FFFFFFFFFFFFFFFFFFFFFFFFFFFFFFFF8C
S214404000FFFFFFFFFFFFFFFFFFFFFFFFFFFFFFFF7B
S214404010FFFFFFFFFFFFFFFFFFFFFFFFFFFFFFFF6B
S214404020FFFFFFFFFFFFFFFFFFFFFFFFFFFFFFFF5B
S214404030FF0000000000000000000000000000003C
S214404040000000000000000000000000000000002B
S2144040500000000000FFFFFFFFFFFFFFFFFFFFFF26
S214404060FFFFFFFFFFFFFF00000000000000000012
S21440407000000000000000000000000000000000FB
S2144040800000000000000000000000FFFFFFFFFFF0
S214404090FFFFFFFFFFFFFFFFFFFFFFFFFFFFFFFFEB
S2144040A0FFFFFFFFFFFF00000000000000000000D1
S2144040B000000000000000000000000000000000BB
S2144040C000000000000000000000000000FFFFFFAE
S2144040D0FFFFFFFFFFFFFFFFFFFFFFFFFFFFFFFFAB
S2144040E0FFFFFFFFFFFFFFFFFFFFFFFFFFFFFFFF9B
S2144040F0FFFFFFFFFFFFFFFFFFFFFFFFFFFFFFFF8B
S214404100FFFFFFFFFFFFFFFFFFFFFFFFFFFFFFFF7A
S214404110FFFFFFFFFFFFFFFFFFFFFFFFFFFFFFFF6A
S214404120FFFFFFFFFFFFFFFFFFFFFFFFFFFFFFFF5A
S214404130FFFFFFFFFFFFFFFFFFFFFFFFFFFFFF0049
S214404140000000000000000000000000000000002A
S214404150000000000000000000000000000000001A
S214404160000000FFFFFFFFFFFFFFFFFFFFFFFFFF17
S214404170FFFFFFFFFF0000000000000000000000FF
S21440418000000000000000000000000000000000EA
S214404190000000000000000000FFFFFFFFFFFFFFE1
S2144041A0FFFFFFFFFFFFFFFFFFFFFFFFFFFFFFFFDA
S2144041B0FFFFFFFF000000000000000000000000BE
S2144041C000000000000000000000000000000000AA
S2144041D00000000000000000000000FFFFFFFFFF9F
S2144041E0FFFFFFFFFFFFFFFFFFFFFFFFFFFFFFFF9A
S2144041F0FFFFFFFFFFFFFFFFFFFFFFFFFFFFFFFF8A
S214404200FFFFFFFFFFFFFFFFFFFFFFFFFFFFFFFF79
S214404210FFFFFFFFFFFFFFFFFFFFFFFFFFFFFFFF69
S214404220FFFFFFFFFFFFFFFFFFFFFFFFFFFFFFFF59
S214404230FFFFFFFFFFFFFFFFFFFFFFFFFFFFFFFF49
S214404240FFFFFFFFFFFFFFFFFFFFFFFFFF00000036
S2144042500000000000000000000000000000000019
S2144042600000000000000000000000000000000009
S21440427000FFFFFFFFFFFFFFFFFFFFFFFFFFFFFF08
S214404280FFFFFF00000000000000000000000000EC
S21440429000000000000000000000000000000000D9
S2144042A000000000000000FFFFFFFFFFFFFFFFFFD2
S2144042B0FFFFFFFFFFFFFFFFFFFFFFFFFFFFFFFFC9
S2144042C0FFFFFFFFFF0000000000000000000000AE
S2144042D00000000000000000000000000000000099
S2144042E0000000000000000000FFFFFFFFFFFFFF90
S2144042F0FFFFFFFFFFFFFFFFFFFFFFFFFFFFFFFF89
S214404300FFFFFFFFFFFFFFFFFFFFFFFFFFFFFFFF78
S214404310FFFFFFFFFFFFFFFFFFFFFFFFFFFFFFFF68
S214404320FFFFFFFFFFFFFFFFFFFFFFFFFFFFFFFF58
S214404330FF00000000000000000000000000000039
S214404340FFFFFFFFFFFFFFFFFFFFFFFFFFFFFFFF38
S214404350FFFFFFFFFFFFFFFFFFFFFFFFFFFF000026
S2144043600000000000000000000000000000000008
S214404370000000000000000000000000000000FFF9
S214404380FFFFFFFFFFFFFFFFFFFFFFFFFFFFFFFFF8
S214404390FF000000000000000000000000000000D9
S2144043A0000000000000000000000000000000FFC9
S2144043B0FFFFFFFFFFFFFFFFFFFFFFFFFFFFFFFFC8
S2144043C0FFFFFFFFFFFFFFFFFFFFFFFFFFFFFFFFB8
S2144043D0FFFFFF000000000000000000000000009B
S2144043E00000000000000000000000000000000088
S2144043F000000000FFFFFFFFFFFFFFFFFFFFFFFF84
S214404400FFFFFFFFFFFFFFFFFFFFFFFFFFFFFFFF77
S214404410FFFFFFFFFFFFFFFFFFFFFFFFFFFFFFFF67
S214404420FFFFFFFFFFFFFFFFFFFFFFFFFFFFFFFF57
S214404430FFFFFF000000000000000000000000003A
S2144044400000000000000000000000000000000027
S2144044500000000000000000000000000000000017
S214404460FFFFFFFFFFFFFFFFFFFFFFFF0000000013
S21440447000000000000000000000000000000000F7
S21440448000000000000000000000000000000000E7
S214404490FFFFFFFFFFFFFFFFFFFFFFFFFFFFFF00E6
S2144044A000000000000000000000000000000000C7
S2144044B000000000000000000000000000FFFFFFBA
S2144044C0FFFFFFFFFFFFFFFFFFFFFFFFFFFFFFFFB7
S2144044D0FFFFFFFFFFFFFFFFFFFFFFFFFFFFFFFFA7
S2144044E0FF00000000000000000000000000000088
S2144044F00000000000000000000000000000000077
S2144045000000FFFFFFFFFFFFFFFFFFFFFFFFFFFF74
S214404510FFFFFFFFFFFFFFFFFFFFFFFFFFFFFFFF66
S214404520FFFFFFFFFFFFFFFFFFFFFFFFFFFFFFFF56
S214404530FFFFFFFFFFFFFFFFFFFFFFFFFFFFFFFF46
S214404540FF00000000000000000000000000000027
S2144045500000000000000000000000000000000016
S2144045600000000000000000000000000000FFFF08
S214404570FFFFFFFFFFFFFFFFFFFF00000000000000
S21440458000000000000000000000000000000000E6
S2144045900000000000000000000000000000FFFFD8
S2144045A0FFFFFFFFFFFFFFFFFFFFFFFFFF000000D3
S2144045B000000000000000000000000000000000B6
S2144045C00000000000000000000000FFFFFFFFFFAB
S2144045D0FFFFFFFFFFFFFFFFFFFFFFFFFFFFFFFFA6
S2144045E0FFFFFFFFFFFFFFFFFFFFFFFFFFFFFFFF96
S2144045F0FFFFFFFFFF00000000000000000000007B
S21440460000000000000000000000FFFFFFFFFFFF6B
S214404610FFFFFFFFFFFFFFFFFFFFFFFFFFFFFFFF65
S214404620FFFFFFFFFFFFFFFFFFFFFFFFFFFFFFFF55
S214404630FFFFFFFFFFFFFFFFFFFFFFFFFFFFFFFF45
S214404640FFFFFFFFFFFFFFFFFFFFFFFFFFFFFF0034
S2144046500000000000000000000000000000000015
S2144046600000000000000000000000000000000005
S21440467000000000000000000000000000000000F5
S2144046800000000000FFFFFF0000000000000000E8
S21440469000000000000000000000000000000000D5
S2144046A0000000000000000000000000FFFFFFFFC9
S2144046B0FFFFFFFFFF0000000000000000000000BA
S2144046C000000000000000000000000000000000A5
S2144046D0000000000000000000FFFFFFFFFFFFFF9C
S2144046E0FFFFFFFFFFFFFFFFFFFFFFFFFFFFFFFF95
S2144046F0FFFFFFFFFFFFFFFFFFFFFFFFFFFFFFFF85
S214404700FFFFFFFFFFFF000000000000000000006A
S2144047100000000000FFFFFFFFFFFFFFFFFFFFFF5F
S214404720FFFFFFFFFFFFFFFFFFFFFFFFFFFFFFFF54
S214404730FFFFFFFFFFFFFFFFFFFFFFFFFFFFFFFF44
S214404740FFFFFFFFFFFFFFFFFFFFFFFFFFFFFFFF34
S214404750FFFFFFFFFFFFFFFFFFFFFFFFFF00000021
S2144047600000000000000000000000000000000004
S21440477000000000000000000000000000000000F4
S21440478000000000000000000000000000000000E4
S21440479000000000000000000000000000000000D4
S2144047A000000000000000000000000000000000C4
S2144047B000000000000000000000FFFFFFFFFFFFBA
S2144047C0FFFFFF00000000000000000000000000A7
S2144047D00000000000000000000000000000000094
S2144047E000000000000000FFFFFFFFFFFFFFFFFF8D
S2144047F0FFFFFFFFFFFFFFFFFFFFFFFFFFFFFFFF84
S214404800FFFFFFFFFFFFFFFFFFFFFFFFFFFFFFFF73
S214404810FFFFFFFF00000000000000000000000057
S214404820000000FFFFFFFFFFFFFFFFFFFFFFFFFF50
S214404830FFFFFFFFFFFFFFFFFFFFFFFFFFFFFFFF43
S214404840FFFFFFFFFFFFFFFFFFFFFFFFFFFFFFFF33
S214404850FFFFFFFFFFFFFFFFFFFFFFFFFFFFFFFF23
S214404860FFFFFFFFFFFFFFFFFFFFFF00000000000E
S21440487000000000000000000000000000000000F3
S21440488000000000000000000000000000000000E3
S21440489000000000000000000000000000000000D3
S2144048A000000000000000000000000000000000C3
S2144048B000000000000000000000000000000000B3
S2144048C00000000000000000FFFFFFFFFFFFFFFFAB
S2144048D0FF00000000000000000000000000000094
S2144048E00000000000000000000000000000000083
S2144048F00000000000FFFFFFFFFFFFFFFFFFFFFF7E
S214404900FFFFFFFFFFFFFFFFFFFFFFFFFFFFFFFF72
S214404910FFFFFFFFFFFFFFFFFFFFFFFFFFFFFFFF62
S214404920FFFFFFFFFFFFFFFF000000FFFFFFFFFF4F
S214404930FFFFFFFFFFFFFFFFFFFFFFFFFFFFFFFF42
S214404940FFFFFFFFFFFFFFFFFFFFFFFFFFFFFFFF32
S214404950FFFFFFFFFFFFFFFFFFFFFFFFFFFFFFFF22
S214404960FFFFFFFFFFFFFFFFFFFFFFFFFFFFFFFF12
S214404970FFFFFFFFFFFFFFFFFFFFFFFF00000000FE
S21440498000000000000000000000000000000000E2
S21440499000000000000000000000000000000000D2
S2144049A000000000000000000000000000000000C2
S2144049B000000000000000000000000000000000B2
S2144049C000000000000000000000000000000000A2
S2144049D0000000000000FFFFFFFFFFFFFFFFFF009B
S2144049E00000000000000000000000000000000082
S2144049F00000000000000000000000000000000072
S214404A00000000FFFFFFFFFFFFFFFFFFFFFFFFFF6E
S214404A10FFFFFFFFFFFFFFFFFFFFFFFFFFFFFFFF61
S214404A20FFFFFFFFFFFFFFFFFFFFFFFFFFFFFFFF51
S214404A30FFFFFFFFFFFFFFFFFFFFFFFFFFFFFFFF41
S214404A40FFFFFFFFFFFFFFFFFFFFFFFFFFFFFFFF31
S214404A50FFFFFFFFFFFFFFFFFFFFFFFFFFFFFFFF21
S214404A60FFFFFFFFFFFFFFFFFFFFFFFFFFFFFFFF11
S214404A70FFFFFFFFFFFFFFFFFFFFFFFFFFFFFFFF01
S214404A80FFFFFFFFFFFFFFFFFFFF000000000000EB
S214404A9000000000000000000000000000000000D1
S214404AA000000000000000000000000000000000C1
S214404AB000000000000000000000000000000000B1
S214404AC000000000000000000000000000000000A1
S214404AD00000000000000000000000000000000091
S214404AE000000000FFFFFFFFFFFFFFFFFF0000008A
S214404AF00000000000000000000000000000000071
S214404B000000000000000000000000000000000060
S214404B1000FFFFFFFFFFFFFFFFFFFFFFFFFFFFFF5F
S214404B20FFFFFFFFFFFFFFFFFFFFFFFFFFFFFFFF50
S214404B30FFFFFFFFFFFFFFFFFFFFFFFFFFFFFFFF40
S214404B40FFFFFFFFFFFFFFFFFFFFFFFFFFFFFFFF30
S214404B50FFFFFFFFFFFFFFFFFFFFFFFFFFFFFFFF20
S214404B60FFFFFFFFFFFFFFFFFFFFFFFFFFFFFFFF10
S214404B70FFFFFFFFFFFFFFFFFFFFFFFFFFFFFFFF00
S214404B80FFFFFFFFFFFFFFFFFFFFFFFFFFFFFFFFF0
S214404B90FFFFFFFFFFFFFFFF0000000000000000D8
S214404BA000000000000000000000000000000000C0
S214404BB000000000000000000000000000000000B0
S214404BC000000000000000000000000000000000A0
S214404BD00000000000000000000000000000000090
S214404BE00000000000000000000000000000000080
S214404BF00000FFFFFFFFFFFFFFFFFF000000000079
S214404C00000000000000000000000000000000005F
S214404C10000000000000000000000000FFFFFFFF53
S214404C20FFFFFFFFFFFFFFFFFFFFFFFFFFFFFFFF4F
S214404C30FFFFFFFFFFFFFFFFFFFFFFFFFFFFFFFF3F
S214404C40FFFFFFFFFFFFFFFFFFFFFFFFFFFFFFFF2F
S214404C50FFFFFFFFFFFFFFFFFFFFFFFFFFFFFFFF1F
S214404C60FFFFFFFFFFFFFFFFFFFFFFFFFFFFFFFF0F
S214404C70FFFFFFFFFFFFFFFFFFFFFFFFFFFFFFFFFF
S214404C80FFFFFFFFFFFFFFFFFFFFFFFFFFFFFFFFEF
S214404C90FFFFFFFFFFFFFFFFFFFFFFFFFFFFFFFFDF
S214404CA0FFFFFFFFFFFF00000000000000000000C5
S214404CB000000000000000000000000000000000AF
S214404CC0000000000000000000000000000000009F
S214404CD0000000000000000000000000000000008F
S214404CE0000000000000000000000000000000007F
S214404CF0000000000000000000000000000000006F
S214404D00FFFFFFFFFFFFFFFFFF0000000000000067
S214404D10000000000000000000000000000000004E
S214404D2000000000000000000000FFFFFFFFFFFF44
S214404D30FFFFFFFFFFFFFFFFFFFFFFFFFFFFFFFF3E
S214404D40FFFFFFFFFFFFFFFFFFFFFFFFFFFFFFFF2E
S214404D50FFFFFFFFFFFFFFFFFFFFFFFFFFFFFFFF1E
S214404D60FFFFFFFFFFFFFFFFFFFFFFFFFFFFFFFF0E
S214404D70FFFFFFFFFFFFFFFFFFFFFFFFFFFFFFFFFE
S214404D80FFFFFFFFFFFFFFFFFFFFFFFFFFFFFFFFEE
S214404D90FFFFFFFFFFFFFFFFFFFFFFFFFFFFFFFFDE
S214404DA0FFFFFFFFFFFFFFFFFFFFFFFFFFFFFFFFCE
S214404DB0FFFFFFFFFFFFFFFFFFFF000000000000B8
S214404DC0000000000000000000000000000000009E
S214404DD0000000000000000000000000000000008E
S214404DE0000000000000000000000000000000007E
S214404DF0000000000000000000000000000000006E
S214404E000000000000000000000000000000FFFF5F
S214404E10FFFFFFFFFFFFFF00000000000000000054
S214404E20000000000000000000000000000000003D
S214404E300000000000000000FFFFFFFFFFFFFFFF35
S214404E40FFFFFFFFFFFFFFFFFFFFFFFFFFFFFFFF2D
S214404E50FFFFFFFFFFFFFFFFFFFFFFFFFFFFFFFF1D
S214404E60FFFFFFFFFFFFFFFFFFFFFFFFFFFFFFFF0D
S214404E70FFFFFFFFFFFFFFFFFFFFFFFFFFFFFFFFFD
S214404E80FFFFFFFFFFFFFFFFFFFFFFFFFFFFFFFFED
S214404E90FFFFFFFFFFFFFFFFFFFFFFFFFFFFFFFFDD
S214404EA0FFFFFFFFFFFFFFFFFFFFFFFFFFFFFFFFCD
S214404EB0FFFFFFFFFFFFFFFFFFFFFFFFFFFFFFFFBD
S214404EC0FFFFFFFFFFFFFFFF0000000000000000A5
S214404ED0000000000000000000000000000000008D
S214404EE0000000000000000000000000000000007D
S214404EF0000000000000000000000000000000006D
S214404F00000000000000000000000000000000005C
S214404F10000000000000000000000000FFFFFFFF50
S214404F20FFFFFFFFFF000000000000000000000041
S214404F30000000000000000000000000000000002C
S214404F40000000000000FFFFFFFFFFFFFFFFFFFF26
S214404F50FFFFFFFFFFFFFFFFFFFFFFFFFFFFFFFF1C
S214404F60FFFFFFFFFFFFFFFFFFFFFFFFFFFFFFFF0C
S214404F70FFFFFFFFFFFFFFFFFFFFFFFFFFFFFFFFFC
S214404F80FFFFFFFFFFFFFFFFFFFFFFFFFFFFFFFFEC
S214404F90FFFFFFFFFFFFFFFFFFFFFFFFFFFFFFFFDC
S214404FA0FFFFFFFFFFFFFFFFFFFFFFFFFFFFFFFFCC
S214404FB0FFFFFFFFFFFFFFFFFFFFFFFFFFFFFFFFBC
S214404FC0FFFFFFFFFFFFFFFFFFFFFFFFFFFFFFFFAC
S214404FD0FFFFFFFFFFFFFFFFFFFFFFFFFFFFFFFF9C
S214404FE0FFFFFFFFFFFFFFFFFFFFFFFFFFFFFFFF8C
S214404FF0FF0000000000000000000000000000006D
S214405000000000000000000000000000000000005B
S214405010000000000000000000000000000000004B
S21440502000000000000000000000FFFFFFFFFFFF41
S214405030FFFFFF000000000000000000000000002E
S214405040000000000000000000000000000000001B
S21440505000000000FFFFFFFFFFFFFFFFFFFFFFFF17
S214405060FFFFFFFFFFFFFFFFFFFFFFFFFFFFFFFF0B
S214405070FFFFFFFFFFFFFFFFFFFFFFFFFFFFFFFFFB
S214405080FFFFFFFFFFFFFFFFFFFFFFFFFFFFFFFFEB
S214405090FFFFFFFFFFFFFFFFFFFFFFFFFFFFFFFFDB
S2144050A0FFFFFFFFFFFFFFFFFFFFFFFFFFFFFFFFCB
S2144050B0FFFFFFFFFFFFFFFFFFFFFFFFFFFFFFFFBB
S2144050C0FFFFFFFFFFFFFFFFFFFFFFFFFFFFFFFFAB
S2144050D0FFFFFFFFFFFFFFFFFFFFFFFFFFFFFFFF9B
S2144050E0FFFFFFFFFFFFFFFFFFFFFFFFFFFFFFFF8B
S2144050F0FFFFFFFFFFFFFFFFFFFFFFFFFFFFFFFF7B
S214405100FFFF00000000000000000000000000005C
S214405110000000000000000000000000000000004A
S214405120000000000000000000000000000000003A
S2144051300000000000000000FFFFFFFFFFFFFFFF32
S214405140FF0000000000000000000000000000001B
S214405150000000000000000000000000000000000A
S2144051600000FFFFFFFFFFFFFFFFFFFFFFFFFFFF08
S214405170FFFFFFFFFFFFFFFFFFFFFFFFFFFFFFFFFA
S214405180FFFFFFFFFFFFFFFFFFFFFFFFFFFFFFFFEA
S214405190FFFFFFFFFFFFFFFFFFFFFFFFFFFFFFFFDA
S2144051A0FFFFFFFFFFFFFFFFFFFFFFFFFFFFFFFFCA
S2144051B0FFFFFFFFFFFFFFFFFFFFFFFFFFFFFFFFBA
S2144051C0FFFFFFFFFFFFFFFFFFFFFFFFFFFFFFFFAA
S2144051D0FFFFFFFFFFFFFFFFFFFFFFFFFFFFFFFF9A
S2144051E0FFFFFFFFFFFFFFFFFFFFFFFFFFFFFFFF8A
S2144051F0FFFFFFFFFFFFFFFFFFFFFFFFFFFFFFFF7A
S214405200FFFFFFFFFFFFFFFFFFFFFFFFFFFFFFFF69
S2144052100000000000000000000000000000000049
S2144052200000000000000000000000000000000039
S2144052300000000000000000000000000000000029
S214405240000000000000FFFFFFFFFFFFFFFFFF0022
S2144052500000000000000000000000000000000009
S21440526000000000000000000000000000000000F9
S214405270000000FFFFFFFFFFFFFFFFFFFFFFFFFFF6
S214405280FFFFFFFFFFFFFFFFFFFFFFFFFFFFFFFFE9
S214405290FFFFFFFFFFFFFFFFFFFFFFFFFFFFFFFFD9
S2144052A0FFFFFFFFFFFFFFFFFFFFFFFFFFFFFFFFC9
S2144052B0FFFFFFFFFFFFFFFFFFFFFFFFFFFFFFFFB9
S2144052C0FFFFFFFFFFFFFFFFFFFFFFFFFFFFFFFFA9
S2144052D0FFFFFFFFFFFFFFFFFFFFFFFFFFFFFFFF99
S2144052E0FFFFFFFFFFFFFFFFFFFFFFFFFFFFFFFF89
S2144052F0FFFFFFFFFFFFFFFFFFFFFFFFFFFFFFFF79
S214405300FFFFFFFFFFFFFFFFFFFFFFFFFFFFFFFF68
S214405310FFFFFFFFFFFFFFFFFFFFFFFFFFFFFFFF58
S214405320FFFFFFFF0000000000000000000000003C
S2144053300000000000000000000000000000000028
S2144053400000000000000000000000000000000018
S21440535000000000FFFFFFFFFFFFFFFFFF00000011
S21440536000000000000000000000000000000000F8
S21440537000000000000000000000000000000000E8
S21440538000FFFFFFFFFFFFFFFFFFFFFFFFFFFFFFE7
S214405390FFFFFFFFFFFFFFFFFFFFFFFFFFFFFFFFD8
S2144053A0FFFFFFFFFFFFFFFFFFFFFFFFFFFFFFFFC8
S2144053B0FFFFFFFFFFFFFFFFFFFFFFFFFFFFFFFFB8
S2144053C0FFFFFFFFFFFFFFFFFFFFFFFFFFFFFFFFA8
S2144053D0FFFFFFFFFFFFFFFFFFFFFFFFFFFFFFFF98
S2144053E0FFFFFFFFFFFFFFFFFFFFFFFFFFFFFFFF88
S2144053F0FFFFFFFFFFFFFFFFFFFFFFFFFFFFFFFF78
S214405400FFFFFFFFFFFFFFFFFFFFFFFFFFFFFFFF67
S214405410FFFFFFFFFFFFFFFFFFFFFFFFFFFFFFFF57
S214405420FFFFFFFFFFFFFFFFFFFFFFFFFFFFFFFF47
S214405430FFFFFFFFFF00000000000000000000002C
S2144054400000000000000000000000000000000017
S2144054500000000000000000000000000000000007
S2144054600000FFFFFFFFFFFFFFFFFF000000000000
S21440547000000000000000000000000000000000E7
S214405480000000000000000000000000000000FFD8
S214405490FFFFFFFFFFFFFFFFFFFFFFFFFFFFFFFFD7
S2144054A0FFFFFFFFFFFFFFFFFFFFFFFFFFFFFFFFC7
S2144054B0FFFFFFFFFFFFFFFFFFFFFFFFFFFFFFFFB7
S2144054C0FFFFFFFFFFFFFFFFFFFFFFFFFFFFFFFFA7
S2144054D0FFFFFFFFFFFFFFFFFFFFFFFFFFFFFFFF97
S2144054E0FFFFFFFFFFFFFFFFFFFFFFFFFFFFFFFF87
S2144054F0FFFFFFFFFFFFFFFFFFFFFFFFFFFFFFFF77
S214405500FFFFFFFFFFFFFFFFFFFFFFFFFFFFFFFF66
S214405510FFFFFFFFFFFFFFFFFFFFFFFFFFFFFFFF56
S214405520FFFFFFFFFFFFFFFFFFFFFFFFFFFFFFFF46
S214405530FFFFFFFFFFFFFFFFFFFFFFFFFFFFFFFF36
S214405540FFFFFF0000000000000000000000000019
S2144055500000000000000000000000000000000006
S21440556000000000000000000000000000000000F6
S214405570FFFFFFFFFFFFFFFFFF00000000000000EF
S21440558000000000000000000000000000000000D6
S21440559000000000000000000000000000FFFFFFC9
S2144055A0FFFFFFFFFFFFFFFFFFFFFFFFFFFFFFFFC6
S2144055B0FFFFFFFFFFFFFFFFFFFFFFFFFFFFFFFFB6
S2144055C0FFFFFFFFFFFFFFFFFFFFFFFFFFFFFFFFA6
S2144055D0FFFFFFFFFFFFFFFFFFFFFFFFFFFFFFFF96
S2144055E0FFFFFFFFFFFFFFFFFFFFFFFFFFFFFFFF86
S2144055F0FFFFFFFFFFFFFFFFFFFFFFFFFFFFFFFF76
S214405600FFFFFFFFFFFFFFFFFFFFFFFFFFFFFFFF65
S214405610FFFFFFFFFFFFFFFFFFFFFFFFFFFFFFFF55
S214405620FFFFFFFFFFFFFFFFFFFFFFFFFFFFFFFF45
S214405630FFFFFFFFFFFFFFFFFFFFFFFFFFFFFFFF35
S214405640FFFFFFFFFFFFFFFFFFFFFFFFFFFFFFFF25
S214405650FFFFFFFFFFFFFF0000000000000000000C
S21440566000000000000000000000000000000000F5
S2144056700000000000000000000000000000FFFFE7
S214405680FFFFFFFFFFFFFFFFFFFFFFFFFF000000E2
S21440569000000000000000000000000000000000C5
S2144056A00000000000000000000000FFFFFFFFFFBA
S2144056B0FFFFFFFFFFFFFFFFFFFFFFFFFFFFFFFFB5
S2144056C0FFFFFFFFFFFFFFFFFFFFFFFFFFFFFFFFA5
S2144056D0FFFFFFFFFFFFFFFFFFFFFFFFFFFFFFFF95
S2144056E0FFFFFFFFFFFFFFFFFFFFFFFFFFFFFFFF85
S2144056F0FFFFFFFFFFFFFFFFFFFFFFFFFFFFFFFF75
S214405700FFFFFFFFFFFFFFFFFFFFFFFFFFFFFFFF64
S214405710FFFFFFFFFFFFFFFFFFFFFFFFFFFFFFFF54
S214405720FFFFFFFFFFFFFFFFFFFFFFFFFFFFFFFF44
S214405730FFFFFFFFFFFFFFFFFFFFFFFFFFFFFFFF34
S214405740FFFFFFFFFFFFFFFFFFFFFFFFFFFFFFFF24
S214405750FFFFFFFFFFFFFFFFFFFFFFFFFFFFFFFF14
S214405760FFFFFFFFFF0000000000000000000000F9
S21440577000000000000000000000000000000000E4
S214405780000000000000000000000000FFFFFFFFD8
S214405790FFFFFFFFFFFFFFFFFFFFFF0000000000CF
S2144057A000000000000000000000000000000000B4
S2144057B0000000000000000000FFFFFFFFFFFFFFAB
S2144057C0FFFFFFFFFFFFFFFFFFFFFFFFFFFFFFFFA4
S2144057D0FFFFFFFFFFFFFFFFFFFFFFFFFFFFFFFF94
S2144057E0FFFFFFFFFFFFFFFFFFFFFFFFFFFFFFFF84
S2144057F0FFFFFFFFFFFFFFFFFFFFFFFFFFFFFFFF74
S214405800FFFFFFFFFFFFFFFFFFFFFFFFFFFFFFFF63
S214405810FFFFFFFFFFFFFFFFFFFFFFFFFFFFFFFF53
S214405820FFFFFFFFFFFFFFFFFFFFFFFFFFFFFFFF43
S214405830FFFFFFFFFFFFFFFFFFFFFFFFFFFFFFFF33
S214405840FFFFFFFFFFFFFFFFFFFFFFFFFFFFFFFF23
S214405850FFFFFFFFFFFFFFFFFFFFFFFFFFFFFFFF13
S214405860FFFFFFFFFFFFFFFFFFFFFFFFFFFFFFFF03
S214405870FFFFFF00000000000000000000000000E6
S21440588000000000000000000000000000000000D3
S21440589000000000000000000000FFFFFFFFFFFFC9
S2144058A0FFFFFFFFFFFFFFFFFF00000000000000BC
S2144058B000000000000000000000000000000000A3
